:100000000C942A000C9447000C9447000C94470071
:100010000C9447000C9447000C9447000C94470044
:100020000C9447000C9447000C9447000C94470034
:100030000C9447000C9447000C9447000C94470024
:100040000C9447000C9447000C9447000C94470014
:100050000C94470011241FBECFE5D4E0DEBFCDBF16
:1000600010E0A0E6B0E0E2E9F3E002C005900D92F6
:10007000A83DB107D9F710E0A8EDB0E001C01D928E
:10008000A93DB107E1F70E94EF000C94C7010C9461
:100090000000282F207F28BBC298C39A20ED37E0AC
:1000A000F9013197F1F7C398F9013197F1F790E031
:1000B00044E0880F991F4A95E1F788BBC298C39A1C
:1000C000C9010197F1F7C398C9010197F1F70895A4
:1000D00082E090E00E94490088E290E00E9449009E
:1000E00086E090E00E9449008CE090E00E94490088
:1000F0000895282F207F28BBC29AC39A20ED37E0AD
:10010000F9013197F1F7C398F9013197F1F790E0D0
:1001100054E0880F991F5A95E1F788BBC29AC39A99
:10012000C9010197F1F7C398C9010197F1F7089543
:1001300081E00E94490080ED97E00197F1F7089572
:100140001F93CF93DF93EC0110E003C00E9479006E
:100150001F5FFE01E10FF11D80818823B9F7DF9158
:10016000CF911F910895CF93DF93EC0184E00E941B
:100170004900209791F480E30E9479000EC0CE01DF
:100180006AE070E00E94B301805D0E947900CE01B8
:100190006AE070E00E94B301EB01209781F786E0EE
:1001A0000E944900DF91CF91089583E389B910BC83
:1001B0008EE880BD88E18AB908955D9BFECF8CB939
:1001C00008955F9BFECF8CB10895FC0104C05D9B38
:1001D000FECF8CB9319680818823C9F708951F938B
:1001E000CF93DF931FEF17BB0E94680083E389B9A9
:1001F00010BC8EE880BD88E18AB91ABB80E090E02F
:10020000C0E2DEE404C05D9BFECFECB90196FC01C8
:10021000E05AFF4FE081EE23B1F710EC5F9BFECF79
:100220008CB18093D800812F0E9449008091D80022
:100230000E94790086E00E944900CE010197F1F703
:100240008091D800813351F40E94980080E80E9488
:10025000490082E790E00E94A000D89A8091D800DF
:10026000863389F40E94980080E80E9449008FE755
:1002700090E00E94A00089B3817089BB89B3882374
:1002800011F08BB38BBB8091D800823351F40E9464
:10029000980080E80E9449008CE890E00E94A0004D
:1002A000D99A8091D800873389F40E94980080E819
:1002B0000E94490089E990E00E94A00089B3827001
:1002C00089BB89B3882311F08BB38BBB8091D80095
:1002D000833351F40E94980080E80E94490085EA27
:1002E00090E00E94A000DA9A8091D800883389F4C7
:1002F0000E94980080E80E94490081EB90E00E94F3
:10030000A00089B3847089BB89B3882311F08BB3B3
:100310008BBB8091D800843351F40E94980080E810
:100320000E9449008CEB90E00E94A000DB9A809133
:10033000D800893389F40E94980080E80E9449001F
:100340008AEC90E00E94A00089B3887089BB89B3D1
:10035000882311F08BB38BBB1F5F103D09F05ECF7C
:1003600080E090E054CFAA1BBB1B51E107C0AA1F3D
:10037000BB1FA617B70710F0A61BB70B881F991F46
:100380005A95A9F780959095BC01CD010895F894F0
:02039000FFCF9D
:1003920057454C434F4D4520544F205345524941F8
:1003A2004C004C414D50203120474C4F5720004CBF
:1003B200414D502031204F46462020004C414D50A7
:1003C200203220474C4F5720004C414D50203220C4
:1003D2004F464620004C414D50203320474C4F574A
:1003E200004C414D502033204F464600204C414D99
:1003F20050203420474C4F572000204C414D502074
:0804020034204F464620200083
:00000001FF
